{
  "contractName": "LinkedListTest",
  "abi": [
    {
      "constant": true,
      "inputs": [
        {
          "name": "id",
          "type": "uint256"
        }
      ],
      "name": "prev",
      "outputs": [
        {
          "name": "",
          "type": "uint256"
        }
      ],
      "payable": false,
      "stateMutability": "view",
      "type": "function"
    },
    {
      "constant": true,
      "inputs": [],
      "name": "first",
      "outputs": [
        {
          "name": "",
          "type": "uint256"
        }
      ],
      "payable": false,
      "stateMutability": "view",
      "type": "function"
    },
    {
      "constant": false,
      "inputs": [
        {
          "name": "id",
          "type": "uint256"
        }
      ],
      "name": "remove",
      "outputs": [
        {
          "name": "",
          "type": "bool"
        }
      ],
      "payable": false,
      "stateMutability": "nonpayable",
      "type": "function"
    },
    {
      "constant": false,
      "inputs": [
        {
          "name": "afterId",
          "type": "uint256"
        },
        {
          "name": "id",
          "type": "uint256"
        }
      ],
      "name": "insertAfter",
      "outputs": [],
      "payable": false,
      "stateMutability": "nonpayable",
      "type": "function"
    },
    {
      "constant": false,
      "inputs": [
        {
          "name": "id",
          "type": "uint256"
        }
      ],
      "name": "insertBeginning",
      "outputs": [],
      "payable": false,
      "stateMutability": "nonpayable",
      "type": "function"
    },
    {
      "constant": false,
      "inputs": [
        {
          "name": "beforeId",
          "type": "uint256"
        },
        {
          "name": "id",
          "type": "uint256"
        }
      ],
      "name": "insertBefore",
      "outputs": [],
      "payable": false,
      "stateMutability": "nonpayable",
      "type": "function"
    },
    {
      "constant": true,
      "inputs": [],
      "name": "getSize",
      "outputs": [
        {
          "name": "",
          "type": "uint256"
        }
      ],
      "payable": false,
      "stateMutability": "view",
      "type": "function"
    },
    {
      "constant": false,
      "inputs": [
        {
          "name": "id",
          "type": "uint256"
        }
      ],
      "name": "insertEnd",
      "outputs": [],
      "payable": false,
      "stateMutability": "nonpayable",
      "type": "function"
    },
    {
      "constant": true,
      "inputs": [
        {
          "name": "id",
          "type": "uint256"
        }
      ],
      "name": "next",
      "outputs": [
        {
          "name": "",
          "type": "uint256"
        }
      ],
      "payable": false,
      "stateMutability": "view",
      "type": "function"
    }
  ],
  "bytecode": "0x6060604052341561000f57600080fd5b6107008061001e6000396000f300606060405260043610610099576000357c0100000000000000000000000000000000000000000000000000000000900463ffffffff168063356712141461009e5780633df4ddf4146100d55780634cc82215146100fe5780635e77a33c14610139578063b3134b7b14610165578063c0f0eddc14610188578063de8fa431146101b4578063ebbaec05146101dd578063edd004e514610200575b600080fd5b34156100a957600080fd5b6100bf6004808035906020019091905050610237565b6040518082815260200191505060405180910390f35b34156100e057600080fd5b6100e8610254565b6040518082815260200191505060405180910390f35b341561010957600080fd5b61011f6004808035906020019091905050610260565b604051808215151515815260200191505060405180910390f35b341561014457600080fd5b610163600480803590602001909190803590602001909190505061027d565b005b341561017057600080fd5b6101866004808035906020019091905050610297565b005b341561019357600080fd5b6101b260048080359060200190919080359060200190919050506102ae565b005b34156101bf57600080fd5b6101c76102c8565b6040518082815260200191505060405180910390f35b34156101e857600080fd5b6101fe60048080359060200190919050506102d4565b005b341561020b57600080fd5b61022160048080359060200190919050506102eb565b6040518082815260200191505060405180910390f35b600061024d82600061030890919063ffffffff16565b9050919050565b60008060010154905090565b600061027682600061032b90919063ffffffff16565b9050919050565b610293828260006103dc9092919063ffffffff16565b5050565b6102ab8160006104e790919063ffffffff16565b50565b6102c4828260006103dc9092919063ffffffff16565b5050565b60008060030154905090565b6102e881600061057690919063ffffffff16565b50565b60006103018260006105a690919063ffffffff16565b9050919050565b600082600001600083815260200190815260200160002060000154905092915050565b6000806000846000016000858152602001908152602001600020600101549150846000016000858152602001908152602001600020600001549050600081141561037d5781856001018190555061039b565b81856000016000838152602001908152602001600020600101819055505b60008214156103b2578085600201819055506103d0565b80856000016000848152602001908152602001600020600001819055505b60019250505092915050565b81836000016000838152602001908152602001600020600001819055506000836000016000848152602001908152602001600020600101541415610446576000836000016000838152602001908152602001600020600101819055508083600201819055506104b1565b826000016000838152602001908152602001600020600101548360000160008381526020019081526020016000206001018190555080836000016000856000016000868152602001908152602001600020600101548152602001908152602001600020600001819055505b80836000016000848152602001908152602001600020600101819055508260030160008154809291906001019190505550505050565b60008260010154141561056257808260010181905550808260020181905550604080519081016040528060008152602001600081525082600001600083815260200190815260200160002060008201518160000155602082015181600101559050508160030160008154809291906001019190505550610572565b610571828360010154836105c9565b5b5050565b6000826002015414156105925761058d82826104e7565b6105a2565b6105a1828360020154836103dc565b5b5050565b600082600001600083815260200190815260200160002060010154905092915050565b818360000160008381526020019081526020016000206001018190555060008360000160008481526020019081526020016000206000015414156106335760008360000160008381526020019081526020016000206000018190555080836001018190555061069e565b826000016000838152602001908152602001600020600001548360000160008381526020019081526020016000206000018190555080836000016000856000016000868152602001908152602001600020600001548152602001908152602001600020600101819055505b808360000160008481526020019081526020016000206000018190555082600301600081548092919060010191905055505050505600a165627a7a723058205676aea62aec6407041182e5d73a2ff1a406014962de59d1bedddb6401257e8d0029",
  "source": "pragma solidity ^0.4.17;\n\nimport \"./../LinkedList.sol\";\n\n\ncontract LinkedListTest {\n    using LinkedList for LinkedList.Data;\n    LinkedList.Data private map;\n\n    function getSize() public view returns (uint) {\n        return map.len;\n    }\n\n    function insertAfter(uint afterId, uint id) public {\n        map.insertAfter(afterId, id);\n    }\n\n    function insertBefore(uint beforeId, uint id) public {\n        map.insertAfter(beforeId, id);\n    }\n\n    function insertBeginning(uint id) public {\n        map.insertBeginning(id);\n    }\n\n    function insertEnd(uint id) public {\n        map.insertEnd(id);\n    }\n\n    function remove(uint id) public returns (bool) {\n        return map.remove(id);\n    }\n\n    function first() public view returns (uint) {\n        return map.firstNodeId;\n    }\n\n    function next(uint id) public view returns (uint) {\n        return map.next(id);\n    }\n\n    function prev(uint id) public view returns (uint) {\n        return map.prev(id);\n    }\n}\n",
  "sourcePath": "/Users/sagivo/dev/side/crypto/mapUtil/contracts/TestContracts/LinkedListTest.sol",
  "compiler": {
    "name": "solc",
    "version": "0.4.18+commit.9cf6e910.Emscripten.clang"
  },
  "schemaVersion": "1.0.1",
  "updatedAt": "2018-01-16T20:22:22.103Z"
}