{
  "contractName": "MapUtilContract",
  "abi": [
    {
      "constant": false,
      "inputs": [
        {
          "name": "id",
          "type": "uint256"
        }
      ],
      "name": "remove",
      "outputs": [
        {
          "name": "",
          "type": "bool"
        }
      ],
      "payable": false,
      "stateMutability": "nonpayable",
      "type": "function"
    },
    {
      "constant": true,
      "inputs": [],
      "name": "getAll",
      "outputs": [
        {
          "name": "arr",
          "type": "uint256[10]"
        }
      ],
      "payable": false,
      "stateMutability": "view",
      "type": "function"
    },
    {
      "constant": false,
      "inputs": [
        {
          "name": "afterId",
          "type": "uint256"
        },
        {
          "name": "id",
          "type": "uint256"
        }
      ],
      "name": "insertAfter",
      "outputs": [],
      "payable": false,
      "stateMutability": "nonpayable",
      "type": "function"
    },
    {
      "constant": false,
      "inputs": [
        {
          "name": "id",
          "type": "uint256"
        }
      ],
      "name": "push",
      "outputs": [],
      "payable": false,
      "stateMutability": "nonpayable",
      "type": "function"
    },
    {
      "constant": false,
      "inputs": [
        {
          "name": "id",
          "type": "uint256"
        }
      ],
      "name": "insertBeginning",
      "outputs": [],
      "payable": false,
      "stateMutability": "nonpayable",
      "type": "function"
    },
    {
      "constant": false,
      "inputs": [
        {
          "name": "beforeId",
          "type": "uint256"
        },
        {
          "name": "id",
          "type": "uint256"
        }
      ],
      "name": "insertBefore",
      "outputs": [],
      "payable": false,
      "stateMutability": "nonpayable",
      "type": "function"
    },
    {
      "constant": true,
      "inputs": [],
      "name": "map",
      "outputs": [
        {
          "name": "firstNodeId",
          "type": "uint256"
        },
        {
          "name": "lastNodeId",
          "type": "uint256"
        },
        {
          "name": "len",
          "type": "uint256"
        }
      ],
      "payable": false,
      "stateMutability": "view",
      "type": "function"
    },
    {
      "constant": true,
      "inputs": [],
      "name": "getSize",
      "outputs": [
        {
          "name": "",
          "type": "uint256"
        }
      ],
      "payable": false,
      "stateMutability": "view",
      "type": "function"
    },
    {
      "constant": false,
      "inputs": [
        {
          "name": "id",
          "type": "uint256"
        }
      ],
      "name": "insertEnd",
      "outputs": [],
      "payable": false,
      "stateMutability": "nonpayable",
      "type": "function"
    },
    {
      "inputs": [],
      "payable": false,
      "stateMutability": "nonpayable",
      "type": "constructor"
    }
  ],
  "bytecode": "0x6060604052341561000f57600080fd5b6106d78061001e6000396000f300606060405260043610610099576000357c0100000000000000000000000000000000000000000000000000000000900463ffffffff1680634cc822151461009e57806353ed5143146100d95780635e77a33c1461012a578063959ac48414610156578063b3134b7b14610179578063c0f0eddc1461019c578063c7581184146101c8578063de8fa431146101ff578063ebbaec0514610228575b600080fd5b34156100a957600080fd5b6100bf600480803590602001909190505061024b565b604051808215151515815260200191505060405180910390f35b34156100e457600080fd5b6100ec6102ec565b6040518082600a60200280838360005b838110156101175780820151818401526020810190506100fc565b5050505090500191505060405180910390f35b341561013557600080fd5b6101546004808035906020019091908035906020019091905050610390565b005b341561016157600080fd5b6101776004808035906020019091905050610425565b005b341561018457600080fd5b61019a60048080359060200190919050506104b1565b005b34156101a757600080fd5b6101c6600480803590602001909190803590602001909190505061053d565b005b34156101d357600080fd5b6101db6105d2565b60405180848152602001838152602001828152602001935050505060405180910390f35b341561020a57600080fd5b6102126105ea565b6040518082815260200191505060405180910390f35b341561023357600080fd5b61024960048080359060200190919050506105f6565b005b60008073__MapUtil_______________________________63c639b4839091846000604051602001526040518363ffffffff167c0100000000000000000000000000000000000000000000000000000000028152600401808381526020018281526020019250505060206040518083038186803b15156102ca57600080fd5b6102c65a03f415156102db57600080fd5b505050604051805190509050919050565b6102f4610682565b600073__MapUtil_______________________________63e515af0a9091600060405161014001526040518263ffffffff167c0100000000000000000000000000000000000000000000000000000000028152600401808281526020019150506101406040518083038186803b151561036c57600080fd5b6102c65a03f4151561037d57600080fd5b5050506040518061014001604052905090565b600073__MapUtil_______________________________6356350be2909184846040518463ffffffff167c010000000000000000000000000000000000000000000000000000000002815260040180848152602001838152602001828152602001935050505060006040518083038186803b151561040d57600080fd5b6102c65a03f4151561041e57600080fd5b5050505050565b600073__MapUtil_______________________________6364c16c8a9091836040518363ffffffff167c0100000000000000000000000000000000000000000000000000000000028152600401808381526020018281526020019250505060006040518083038186803b151561049a57600080fd5b6102c65a03f415156104ab57600080fd5b50505050565b600073__MapUtil_______________________________6389b07b7a9091836040518363ffffffff167c0100000000000000000000000000000000000000000000000000000000028152600401808381526020018281526020019250505060006040518083038186803b151561052657600080fd5b6102c65a03f4151561053757600080fd5b50505050565b600073__MapUtil_______________________________6356350be2909184846040518463ffffffff167c010000000000000000000000000000000000000000000000000000000002815260040180848152602001838152602001828152602001935050505060006040518083038186803b15156105ba57600080fd5b6102c65a03f415156105cb57600080fd5b5050505050565b60008060020154908060030154908060040154905083565b60008060020154905090565b600073__MapUtil_______________________________63d8ee851e9091836040518363ffffffff167c0100000000000000000000000000000000000000000000000000000000028152600401808381526020018281526020019250505060006040518083038186803b151561066b57600080fd5b6102c65a03f4151561067c57600080fd5b50505050565b61014060405190810160405280600a905b600081526020019060019003908161069357905050905600a165627a7a7230582037a0064c380522be5cc8a764e068c060681d2e5b25feedf144f2208a14273e4a0029",
  "source": "pragma solidity ^0.4.17;\n\nimport \"./../MapUtil.sol\";\n\n\ncontract MapUtilContract {\n    using MapUtil for MapUtil.Data;\n    MapUtil.Data public map;\n\n    function MapUtilContract() public {\n    }\n\n    function getSize() public view returns (uint) {\n        return map.firstNodeId;\n    }\n\n    function push(uint id) public {\n        map.push(id);\n    }\n\n    function insertAfter(uint afterId, uint id) public {\n        map.insertAfter(afterId, id);\n    }\n\n    function insertBefore(uint beforeId, uint id) public {\n        map.insertAfter(beforeId, id);\n    }\n\n    function insertBeginning(uint id) public {\n        map.insertBeginning(id);\n    }\n\n    function insertEnd(uint id) public {\n        map.insertEnd(id);\n    }\n\n    function remove(uint id) public returns (bool) {\n        return map.remove(id);\n    }\n\n    function getAll() public view returns (uint[10] arr) {\n        return map.getAll();\n    }\n}\n",
  "sourcePath": "/Users/sagivo/dev/side/crypto/mapUtil/contracts/TestContracts/MapUtilContract.sol",
  "compiler": {
    "name": "solc",
    "version": "0.4.18+commit.9cf6e910.Emscripten.clang"
  },
  "schemaVersion": "1.0.1",
  "updatedAt": "2018-01-12T21:59:14.925Z"
}