{
  "contractName": "MapUtil",
  "abi": [
    {
      "constant": false,
      "inputs": [
        {
          "name": "self",
          "type": "MapUtil.Data storage"
        },
        {
          "name": "afterId",
          "type": "uint256"
        },
        {
          "name": "id",
          "type": "uint256"
        }
      ],
      "name": "insertAfter",
      "outputs": [],
      "payable": false,
      "stateMutability": "nonpayable",
      "type": "function"
    },
    {
      "constant": false,
      "inputs": [
        {
          "name": "self",
          "type": "MapUtil.Data storage"
        },
        {
          "name": "id",
          "type": "uint256"
        }
      ],
      "name": "push",
      "outputs": [],
      "payable": false,
      "stateMutability": "nonpayable",
      "type": "function"
    },
    {
      "constant": false,
      "inputs": [
        {
          "name": "self",
          "type": "MapUtil.Data storage"
        },
        {
          "name": "id",
          "type": "uint256"
        }
      ],
      "name": "insertBeginning",
      "outputs": [],
      "payable": false,
      "stateMutability": "nonpayable",
      "type": "function"
    },
    {
      "constant": false,
      "inputs": [
        {
          "name": "self",
          "type": "MapUtil.Data storage"
        },
        {
          "name": "beforeId",
          "type": "uint256"
        },
        {
          "name": "id",
          "type": "uint256"
        }
      ],
      "name": "insertBefore",
      "outputs": [],
      "payable": false,
      "stateMutability": "nonpayable",
      "type": "function"
    },
    {
      "constant": false,
      "inputs": [
        {
          "name": "self",
          "type": "MapUtil.Data storage"
        },
        {
          "name": "id",
          "type": "uint256"
        }
      ],
      "name": "remove",
      "outputs": [
        {
          "name": "",
          "type": "bool"
        }
      ],
      "payable": false,
      "stateMutability": "nonpayable",
      "type": "function"
    },
    {
      "constant": false,
      "inputs": [
        {
          "name": "self",
          "type": "MapUtil.Data storage"
        },
        {
          "name": "id",
          "type": "uint256"
        }
      ],
      "name": "insertEnd",
      "outputs": [],
      "payable": false,
      "stateMutability": "nonpayable",
      "type": "function"
    },
    {
      "constant": true,
      "inputs": [
        {
          "name": "self",
          "type": "MapUtil.Data storage"
        }
      ],
      "name": "getAll",
      "outputs": [
        {
          "name": "",
          "type": "uint256[10]"
        }
      ],
      "payable": false,
      "stateMutability": "view",
      "type": "function"
    }
  ],
  "bytecode": "0x6060604052341561000f57600080fd5b61061d8061001e6000396000f300606060405260043610610083576000357c0100000000000000000000000000000000000000000000000000000000900463ffffffff16806356350be21461008857806364c16c8a146100b257806389b07b7a146100d3578063a9170bff146100f4578063c639b4831461011e578063d8ee851e14610157578063e515af0a14610178575b600080fd5b6100b060048080359060200190919080359060200190919080359060200190919050506101cc565b005b6100d160048080359060200190919080359060200190919050506102c3565b005b6100f260048080359060200190919080359060200190919050506102d1565b005b61011c600480803590602001909190803590602001909190803590602001909190505061034c565b005b61013d6004808035906020019091908035906020019091905050610443565b604051808215151515815260200191505060405180910390f35b6101766004808035906020019091908035906020019091905050610523565b005b61018e6004808035906020019091905050610553565b6040518082600a60200280838360005b838110156101b957808201518184015260208101905061019e565b5050505090500191505060405180910390f35b81836000016000838152602001908152602001600020600001819055506000836000016000848152602001908152602001600020600101541415610236576000836000016000838152602001908152602001600020600101819055508083600301819055506102a1565b826000016000838152602001908152602001600020600101548360000160008381526020019081526020016000206001018190555080836000016000856000016000868152602001908152602001600020600101548152602001908152602001600020600001819055505b8083600001600084815260200190815260200160002060010181905550505050565b6102cd8282610523565b5050565b6000826002015414156103385780826002018190555080826003018190555060408051908101604052806000815260200160008152508260000160008381526020019081526020016000206000820151816000015560208201518160010155905050610348565b6103478283600201548361034c565b5b5050565b818360000160008381526020019081526020016000206001018190555060008360000160008481526020019081526020016000206000015414156103b657600083600001600083815260200190815260200160002060000181905550808360020181905550610421565b826000016000838152602001908152602001600020600001548360000160008381526020019081526020016000206000018190555080836000016000856000016000868152602001908152602001600020600001548152602001908152602001600020600101819055505b8083600001600084815260200190815260200160002060000181905550505050565b600080600084600101600085815260200190815260200160002060009054906101000a900460ff16151561047a576000925061051b565b84600001600085815260200190815260200160002060010154915084600001600085815260200190815260200160002060000154905060008114156104c7578185600201819055506104e5565b81856000016000838152602001908152602001600020600101819055505b60008214156104fc5780856003018190555061051a565b80856000016000848152602001908152602001600020600001819055505b5b505092915050565b60008260030154141561053f5761053a82826102d1565b61054f565b61054e828360030154836101cc565b5b5050565b61055b6105c8565b6105636105c8565b60008084600201549150600090505b600a8110156105bd576104578382600a8110151561058c57fe5b6020020181815250508460000160008381526020019081526020016000206001015491508080600101915050610572565b829350505050919050565b61014060405190810160405280600a905b60008152602001906001900390816105d957905050905600a165627a7a723058202a2e6aa8a57a2ab28b7a65b25378d8a5df684bee2afe32c5b03ed2dc42c9c9ce0029",
  "source": "pragma solidity ^0.4.17;\n\n\nlibrary MapUtil {\n    uint constant private NULL = 0;\n\n    struct Node {\n        uint prev;\n        uint next;\n    }\n\n    struct Data {\n        mapping(uint => Node) list;\n        mapping(uint => bool) set;\n        uint firstNodeId;\n        uint lastNodeId;\n        uint len;\n    }\n\n    function insertAfter(Data storage self, uint afterId, uint id) public {\n        self.list[id].prev = afterId;\n        if (self.list[afterId].next == NULL) {\n            self.list[id].next = 0;\n            self.lastNodeId = id;\n        } else {\n            self.list[id].next = self.list[afterId].next;\n            self.list[self.list[afterId].next].prev = id;\n        }\n        self.list[afterId].next = id;\n    }\n\n    function insertBefore(Data storage self, uint beforeId, uint id) public {\n        self.list[id].next = beforeId;\n        if (self.list[beforeId].prev == NULL) {\n            self.list[id].prev = 0;\n            self.firstNodeId = id;\n        } else {\n            self.list[id].prev = self.list[beforeId].prev;\n            self.list[self.list[beforeId].prev].next = id;\n        }\n        self.list[beforeId].prev = id;\n    }\n\n    function insertBeginning(Data storage self, uint id) public {\n        if (self.firstNodeId == NULL) {\n            self.firstNodeId = id;\n            self.lastNodeId = id;\n            self.list[id] = Node({ prev: 0, next: 0 });\n        } else\n            insertBefore(self, self.firstNodeId, id);\n    }\n\n    function insertEnd(Data storage self, uint id) public {\n        if (self.lastNodeId == NULL) insertBeginning(self, id);\n        else\n            insertAfter(self, self.lastNodeId, id);\n    }\n\n    function push(Data storage self, uint id) public {\n        insertEnd(self, id);\n        // self.len++;\n    }\n\n    function remove(Data storage self, uint id) public returns (bool) {\n        if (!self.set[id]) return false;\n\n        uint nextId = self.list[id].next;\n        uint prevId = self.list[id].prev;\n\n        if (prevId == NULL) self.firstNodeId = nextId; //first node\n        else\n            self.list[prevId].next = nextId;\n\n        if (nextId == NULL) self.lastNodeId = prevId; //last node\n        else\n            self.list[nextId].prev = prevId;\n\n        // self.len--;\n    }\n\n    function getAll(Data storage self) public view returns (uint[10]) {\n        uint[10] memory arr;\n        uint id = self.firstNodeId;\n        for (uint i = 0; i < 10; i++) {\n            arr[i] = 1111;\n            id = self.list[id].next;\n        }\n        return arr;\n    }\n}\n",
  "sourcePath": "/Users/sagivo/dev/side/crypto/mapUtil/contracts/MapUtil.sol",
  "compiler": {
    "name": "solc",
    "version": "0.4.18+commit.9cf6e910.Emscripten.clang"
  },
  "schemaVersion": "1.0.1",
  "updatedAt": "2018-01-12T21:59:14.928Z"
}