{
  "contractName": "Test",
  "abi": [
    {
      "constant": false,
      "inputs": [],
      "name": "s",
      "outputs": [
        {
          "name": "",
          "type": "uint256"
        }
      ],
      "payable": false,
      "stateMutability": "nonpayable",
      "type": "function"
    }
  ],
  "bytecode": "0x60606040523415600e57600080fd5b609f8061001c6000396000f300606060405260043610603f576000357c0100000000000000000000000000000000000000000000000000000000900463ffffffff16806386b714e2146044575b600080fd5b3415604e57600080fd5b6054606a565b6040518082815260200191505060405180910390f35b6000607b9050905600a165627a7a72305820dd9edd792bd39d0660170865f577e6110b897b02845384e0a50b83536dda60e50029",
  "source": "pragma solidity ^0.4.17;\n\nimport \"./MapUtil.sol\";\n\n\ncontract Test {\n    // using MapUtil for MapUtil.Data;\n    // MapUtil.Data public map;\n\n    // function aa() public returns(uint) {\n    //     // map.insertEnd(id);\n    //     // map.setFoo(id);\n    //     return 123;\n    // }\n\n    function s() public returns(uint) {\n        return 123;\n    }\n\n    // function print() public view returns (uint res) {\n    //     // res = map.getAll()[0];\n    //     res = map.getFoo();\n    // }\n}\n",
  "sourcePath": "/Users/sagivo/dev/side/crypto/mapUtil/contracts/Test.sol",
  "compiler": {
    "name": "solc",
    "version": "0.4.18+commit.9cf6e910.Emscripten.clang"
  },
  "schemaVersion": "1.0.1",
  "updatedAt": "2018-01-12T17:13:45.314Z"
}